:020000040800F2
:10000000005000201D07000865070008650700086C
:100010006507000865070008650700080000000084
:10002000000000000000000000000000650700085C
:100030006507000800000000650700080D060008BD
:1000400065070008650700086507000865070008E0
:1000500065070008650700086507000865070008D0
:1000600065070008650700086507000865070008C0
:1000700065070008650700086507000865070008B0
:1000800065070008650700086507000865070008A0
:100090006507000865070008650700086507000890
:1000A0006507000865070008650700086507000880
:1000B0006507000865070008650700086507000870
:1000C0006507000865070008650700086507000860
:1000D0006507000865070008650700086507000850
:1000E00065070008650700086507000800000000B4
:1000F0000000000000000000000000000000000000
:0C01000000000000000000005FF808F1A3
:10010C0080F0004002E000BF81F0004142001FBFC0
:10011C005FEA410392EA030F7FEA226C7FEA236CC9
:10012C006AD04FEA1262D2EB1363C1BFD2184140BE
:10013C0048404140B8BF5B42192B88BF704710F054
:10014C00004F40F4000020F07F4018BF404211F0F7
:10015C00004F41F4000121F07F4118BF494292EA5F
:10016C00030F3FD0A2F1010241FA03FC10EB0C008B
:10017C00C3F1200301FA03F100F0004302D5494218
:10018C0060EB4000B0F5000F13D3B0F1807F06D3C5
:10019C0040084FEA310102F10102FE2A51D2B1F1BD
:1001AC00004F40EBC25008BF20F0010040EA0300B2
:1001BC007047490040EB0000013A28BFB0F5000F32
:1001CC00EDD2B0FA80FCACF1080CB2EB0C0200FAE8
:1001DC000CF0AABF00EBC25052421843BCBFD04037
:1001EC001843704792F0000F81F4000106BF80F4B1
:1001FC0000000132013BB5E74FEA41037FEA226C74
:10020C0018BF7FEA236C21D092EA030F04D092F03E
:10021C00000F08BF0846704790EA010F1CBF002072
:10022C00704712F07F4F04D1400028BF40F00040CF
:10023C00704712F100723CBF00F50000704700F0EF
:10024C00004343F0FE4040F4000070477FEA226216
:10025C0016BF08467FEA23630146420206BF5FEAE7
:10026C00412390EA010F40F4800070474FF00003E7
:10027C0004E000BF10F0004348BF40425FEA000CAE
:10028C0008BF704743F0964301464FF000001CE056
:10029C0050EA010208BF70474FF000030AE000BFAC
:1002AC0050EA010208BF704711F0004302D54042EA
:1002BC0061EB41015FEA010C02BF8446014600205C
:1002CC0043F0B64308BFA3F18053A3F50003BCFA77
:1002DC008CF2083AA3EBC25310DB01FA02FC634424
:1002EC0000FA02FCC2F12002BCF1004F20FA02F22B
:1002FC0043EB020008BF20F00100704702F120021E
:10030C0001FA02FCC2F1200250EA4C0021FA02F27E
:10031C0043EB020008BF20EADC7070474FF0FF0C83
:10032C001CEAD0521EBF1CEAD15392EA0C0F93EA7E
:10033C000C0F6FD01A4480EA010C400218BF5FEA20
:10034C0041211ED04FF0006343EA501043EA511193
:10035C00A0FB01310CF00040B1F5000F3EBF49008D
:10036C0041EAD3715B0040EA010062F17F02FD2A91
:10037C001DD8B3F1004F40EBC25008BF20F0010074
:10038C00704790F0000F0CF0004C08BF49024CEA8B
:10039C00502040EA51207F3AC2BFD2F1FF0340EA1D
:1003AC00C250704740F400004FF00003013A5DDC8E
:1003BC0012F1190FDCBF00F000407047C2F10002CF
:1003CC00410021FA02F1C2F1200200FA02FC5FEABC
:1003DC00310040F1000053EA4C0308BF20EADC7006
:1003EC00704792F0000F00F0004C02BF400010F478
:1003FC00000F013AF9D040EA0C0093F0000F01F025
:10040C00004C02BF490011F4000F013BF9D041EA46
:10041C000C018FE70CEAD15392EA0C0F18BF93EA48
:10042C000C0F0AD030F0004C18BF31F0004CD8D172
:10043C0080EA010000F00040704790F0000F17BFF9
:10044C0090F0004F084691F0000F91F0004F14D03F
:10045C0092EA0C0F01D142020FD193EA0C0F03D197
:10046C004B0218BF084608D180EA010000F000409A
:10047C0040F0FE4040F40000704740F0FE4040F475
:10048C00400070474FF0FF0C1CEAD0521EBF1CEA14
:10049C00D15392EA0C0F93EA0C0F69D0A2EB030232
:1004AC0080EA010C49024FEA402037D04FF08053CC
:1004BC0043EA111143EA10130CF000408B4238BF91
:1004CC005B0042F17D024FF4000C8B4224BF5B1A9F
:1004DC0040EA0C00B3EB510F24BFA3EB510340EAED
:1004EC005C00B3EB910F24BFA3EB910340EA9C009B
:1004FC00B3EBD10F24BFA3EBD10340EADC001B010B
:10050C0018BF5FEA1C1CE0D1FD2A3FF650AF8B42AE
:10051C0040EBC25008BF20F0010070470CF0004CBB
:10052C004CEA50207F32C2BFD2F1FF0340EAC250E6
:10053C00704740F400004FF00003013A37E792F0A7
:10054C00000F00F0004C02BF400010F4000F013A05
:10055C00F9D040EA0C0093F0000F01F0004C02BF00
:10056C00490011F4000F013BF9D041EA0C0195E769
:10057C000CEAD15392EA0C0F08D142027FF47DAF02
:10058C0093EA0C0F7FF470AF084676E793EA0C0FF2
:10059C0004D14B023FF44CAF08466EE730F0004CF0
:1005AC0018BF31F0004CCAD130F000427FF45CAF80
:1005BC0031F000437FF43CAF5FE700BF10B5054C52
:1005CC00237833B9044B13B10448AFF300800123F3
:1005DC00237010BD1400002000000000B0070008BC
:1005EC0008B5034B1BB103490348AFF3008008BDAA
:1005FC000000000018000020B00700087047000041
:10060C0010B50649064800F043F8064B1860064C36
:10061C0006492068FFF77AFD206010BD38000020E5
:10062C000000002030000020340000206F12833ABC
:10063C004FF0E02341F63F725A6100229A61072283
:10064C001A61704708B50B4A136843F00103136035
:10065C00084B1B6813F0020FFAD00023064A1360F4
:10066C00064A1360064800F00DF8FFF7E1FF62B68A
:10067C00FEE700BF001002403400002030000020D4
:10068C00380000200023036043608360C360704720
:10069C002DE9F04705460C460E6849683046FFF7D1
:1006AC0033FDAF683946FFF7EDFE8146E9682868EF
:1006BC00FFF734FE3146FFF727FD8046D5F804A03E
:1006CC0029695046FFF72AFE4946FFF727FE0146E7
:1006DC004046FFF719FD5146FFF7D4FE0146D4F80A
:1006EC0008803846FFF71AFE01464046FFF70EFD1C
:1006FC00054601463846FFF711FE01463046FFF726
:10070C0005FD66602060C4F80C80A560BDE8F0872C
:10071C00FFF774FF0B480C490C4A002302E0D45835
:10072C00C4500433C4188C42F9D3094A094C002331
:10073C0001E013600432A242FBD300F00FF8FFF784
:10074C0081FF70470000002014000020D007000833
:10075C001400002048000020FEE7000070B50026C1
:10076C000C4D0D4C641BA410A64209D100F01AF8D4
:10077C0000260A4D0A4C641BA410A64205D170BD7C
:10078C0055F8043B98470136EEE755F8043B98477B
:10079C000136F2E7C8070008C8070008C8070008B8
:1007AC00CC070008F8B500BFF8BC08BC9E467047E3
:0C07BC00F8B500BFF8BC08BC9E467047B2
:0407C800ED05000833
:0407CC00C905000853
:1007D0000000803F0000803F6F12833A0000803F9E
:0407E0000000803F56
:040000050800071DCB
:00000001FF
